:020000041000EA
:1000000000B5324B212058609868022188439860DF
:10001000D860186158612E4B002199600221596106
:100020000121F02299502B49196001219960352056
:1000300000F044F80222904214D00621196600F024
:1000400034F8196E01211966002018661A6600F04E
:100050002CF8196E196E196E052000F02FF8012189
:100060000842F9D1002199601B49196000215960AB
:100070001A491B48016001219960EB211966A021F2
:10008000196600F012F800219960164914480160C1
:100090000121996001BC002800D000471248134993
:1000A000086003C880F30888084703B5996A0420EC
:1000B0000142FBD001200142F8D103BD02B5186610
:1000C0001866FFF7F2FF186E186E02BD00000240BE
:1000D000000000180000070000035F00212200005C
:1000E000F4000018222000A00001001008ED00E03C
:1000F00000000000000000000000000074B24E7A12
:1001000000200420F7010010C3010010C5010010F9
:10011000C1010010C1010010C1010010C101001097
:10012000C1010010C1010010C1010010C701001081
:10013000C1010010C1010010C9010010CB01001065
:10014000CD010010CD010010CD010010CD01001037
:10015000CD010010CD010010CD010010CD01001027
:10016000CD010010CD010010CD010010CD01001017
:10017000CD010010CD010010CD010010CD01001007
:10018000CD010010CD010010CD010010CD010010F7
:10019000CD010010CD010010CD010010CD010010E7
:1001A000CD010010CD010010CD010010CD010010D7
:1001B000CD010010CD010010CD010010CD010010C7
:1001C00000BE00BE00BE00BE00BE00BEEFF3058054
:1001D000103800BEF2EB8871400B0510600B051063
:1001E0003402001090A31AE700201F49086006C8D7
:1001F00081F3088810471D48006800282FD10DA4FE
:100200000ECC002902D000F012F8F9E71849194A7B
:10021000002000E001C19142FCD1174988471749ED
:1002200088471749884700BEFDE701C901C29A42C5
:10023000FBD37047600B0510C00000203C2A002053
:10024000DC3405100000042000000420DC3405101C
:10025000001004200010042000000000704709482E
:1002600005F020FE0047000008ED00E0000000D08F
:10027000402A0020FC4E002051460010C12B0010E7
:10028000854700105756000006005250ABB360532C
:10029000A864041006005250861C0302B8640410BF
:1002A000060052505422A29DC06404100500525012
:1002B000DE65F468DC340510F8B5C0460448054B2B
:1002C00010B5834203D0044B002B00D0984710BDDB
:1002D0003C2A00203C2A0020000000000648074974
:1002E000091A8B10C90FC91810B5491003D0044B57
:1002F000002B00D0984710BD3C2A00203C2A00204B
:100300000000000010B5074C2378002B09D1FFF73F
:10031000D5FF054B002B02D0044800E000BF0123AD
:10032000237010BD9830002000000000785B04109E
:10033000054B10B5002B03D00449054800E000BF71
:10034000FFF7CCFF10BDC046000000009C3000202D
:10035000785B04100422802110B504000C4B490086
:100360001A600C4A13680B42FCD053681B04180C2B
:10037000606006F0D5F80022074B06F03AF8074A0D
:10038000074B06F054F806F04BF9A06010BDC046CC
:1003900000E0044000C0044000FEAF4066666666B0
:1003A00066660A400422802110B504000C4B490007
:1003B0001A600C4A13680B42FCD053681B04180CDB
:1003C000606006F0ADF80022074B06F012F8074A0D
:1003D000074B06F02CF806F023F9A06010BDC046CC
:1003E00000E0044000C0044000FEAF406666666660
:1003F00066660A4008007047F0B507000837040039
:100400000E0083B00760002924D008003AF0E4FF12
:100410000500030001900F280BD8012806D132787F
:10042000227200226360FA5403B0F0BD0028F8D0B5
:1004300008E00022200001A929F052FA0700019BE0
:100440002060A36038002A00310006F0B1FD019B56
:100450002768E6E701481DF05DFDC046785B0410A3
:100460000368294A1B6870B505000E00934248D105
:1004700004228024254B64001A60254A1368234215
:10048000FCD050680004000C686006F049F80022B7
:10049000204B05F0AEFF204A204B05F0C8FF06F0C8
:1004A000BFF8A860002E02D00020402E28D1A868F6
:1004B00006F0F0FC184A1A4B05F089FF164A184B53
:1004C00005F097FF174B002205F0B1FF06F0A8F8E2
:1004D0000021041C06F0AAFC431E984100210500DF
:1004E000201C06F095FC431E9841281A06F0B0FC2B
:1004F000211C06F056FC0C4906F098FC431E98415E
:1005000070BD9847CEE7C0465503001000E0044098
:1005100000C0044000FEAF406666666666660A403C
:100520006666FA3F000059400000A0400368344A64
:100530001B6870B505000C0093425ED10422802137
:10054000304B49001A60304A13680B42FCD05068A7
:100550000004000C686005F0E3FF00222B4B05F05F
:1005600048FF2B4A2B4B05F062FF06F059F8A860B4
:10057000A0235B009C4231D036D8C02C2ED0403B0B
:100580009C4229D1A86806F085FC234A234B05F03C
:100590001EFF1F4A224B05F02CFF224B002205F0C4
:1005A00046FF06F03DF80021041C06F03FFC431E08
:1005B000984100210500201C06F02AFC431E9841AA
:1005C000281A06F045FC211C06F0EBFB164906F044
:1005D0002DFC431E984170BD802C0CD1A86806F0FC
:1005E00059FC0B4A0E4BD2E7C0235B009C42F5D06E
:1005F00040339C42F2D00020EDE79847B8E7C04670
:10060000A503001000E0044000C0044000FEAF401D
:100610006666666666660A403333333333330540B5
:100620006666FA3F000059400000A040F8B53A481D
:1006300002F038FBD0228025C0271206116A374B02
:100640001C204B40364900240B40D362002101227C
:1006500002F002FB6D00334E7F001FE0002B40D004
:10066000402B07D1D02109060A695340F02292009D
:100670001340CB61012003F0DDF9D0231B065B683A
:100680009B051B0FA34202D03368013333609620D1
:100690000134400003F0CEF9082C1DD0A3019BB219
:1006A000AB422FD005D8802BDCD0D7D9C02BD9D0E6
:1006B000E0E7BB421DD0E0225200934208D1D02295
:1006C000120611694B40F02189000B40D361D1E73C
:1006D000803A9342C6D0CDE73068431E98413060DF
:1006E000F8BDD022F0211206136989000B40D361B6
:1006F000C0E7D022F0211206136989007B400B402D
:10070000D361B7E7D022F0211206136989006B404C
:100710000B40D361AEE7C046C0031612C0031602F9
:10072000FEFFFF1FBC31002070B50C0008F0B2FFC7
:100730001F211C2002F078FA002200211C2002F068
:100740008BFA00211C2002F099FA1D4B20001A6838
:1007500080239B015340E022D2011340194A1360C9
:1007600023681B689847184A636894466344D817FF
:100770004005400DC018C01205F0D2FE134B0022F8
:1007800005F055FE05F04CFF0021041C06F04EFB61
:10079000431E984100210500201C06F039FB431E32
:1007A0009841281A06F054FB211C06F0FAFA084971
:1007B00006F03CFB431E9841064B186070BDC046D6
:1007C00000C0044000D0044000F8FFFF0000594082
:1007D0000000A040983E002010B50400230080696E
:1007E0002033984203D0216A013106F0F7FB230041
:1007F00020680833984203D0A168013106F0EEFB6F
:10080000200010BDF0B5CE46474680B50368040011
:100810000D0083B0002B56D01E005B6B002BFBD16C
:10082000382006F0CBFB04002B686F680830984630
:10083000206001970F2F28D8012F20D11B78237219
:1008400000236760C35520002300AA69EF692030A8
:1008500090461833A06101970F2F25D8012F11D191
:1008600020231278E2540023E761C3552A6B6363A7
:100870002263746303B0C0BCB946B046F0BD002F1C
:10088000DED00AE0002FEED016E00022200001A901
:1008900029F026F8019B2060A3603A00414606F04B
:1008A00087FB019F2068CBE71800002201A929F0EF
:1008B00017F8019BA06123623A00414606F078FBDD
:1008C000019FA069CFE7382006F078FB0600236877
:1008D0006F6898462B6808309946306001970F2F53
:1008E00025D8012F1DD11B78337200237760C355A3
:1008F00030003300AA69EF69203091461833B061A7
:1009000001970F2F22D8012F0ED120231278F254F5
:100910000023F761C3552B6B266033634346736333
:10092000A8E7002FE1D00AE0002FF1D016E0002266
:10093000300001A928F0D4FF019B3060B3603A0079
:10094000494606F035FB019F3068CEE718000022CB
:1009500001A928F0C5FF019BB06133623A00494606
:1009600006F026FB019FB069D2E7C046F0B5DE462F
:1009700057464E464546E0B5E24C4B69A5449A467B
:100980000EAB0C9300230CAC2372636053468B4672
:100990000390002B01D100F0DFFD5DDD86AF00216B
:1009A0000025B846B94656460BE08699013106F057
:1009B00015FB0A21300005F0A7FA092E46DD0600D6
:1009C0006168F8220AAB52009B18013184A81D709F
:1009D0008497859529F03CF8859B0A2130009A463A
:1009E00005F092FA3031C9B201230022009184A8A7
:1009F000514629F05DF88598C34B626821681B1A3F
:100A00009A4201D900F0E0FE84A829F091F9849B74
:100A10002068BB4200D17BE10EAA904200D195E153
:100A200085992360869BA2680D910E93002800D1C2
:100A300091E184908692859505708498B842B4D1EE
:100A40000A21300005F060FA092EB8DCAE4B62686E
:100A50009A4201D100F0B8FEAC4F012239002000CB
:100A600029F066F9060014AB1293036808360500F6
:100A7000B34201D100F004FE1293836814934368DB
:100A8000139300235A466B602B72126940219246E1
:100A90001AAA2E6018920AAA521819931370534674
:100AA000002B01D100F062FD00221AA9002B5FDDAE
:100AB00080AB984699465B460021BB4600261D0048
:100AC00057460BE08099013106F088FA0A21380078
:100AD00005F01AFA092F47DD070019994346EC2261
:100AE0007E9352000AAB9B1801317EA81E707F9640
:100AF00028F0AEFF7F9B0A2138009A4605F004FAE1
:100B00003031C9B20123002200917EA8514628F05D
:100B1000CFFF7F987C4B199A18991B1A9A4201D9DA
:100B200000F052FE7EA829F003F97E9B18984345F9
:100B300000D1FCE01AAA904200D110E17F991893ED
:100B4000809B1A9A19911A93002800D10CE17E908B
:100B500080927F9606707E984045B3D10A21380076
:100B600005F0D2F9092FB7DC5F46AB46199A189900
:100B70001398129B14AD1618AB4201D100F008FD7A
:100B8000149DAE420AD91AADA94201D100F00EFE61
:100B90001A9DAC46664501D800F0B7FC5A4B1B1AAB
:100BA0009A4201D900F010FE12A829F0C1F80822DB
:100BB00090461EAB049320AB1E93089303688044B9
:100BC0000600434501D100F063FD1E938368049A3B
:100BD00093604368049A5360434633600023736014
:100BE00033721000484B52689A4201D100F0ECFD7C
:100BF0003900012229F09CF8070026AB24930368F2
:100C000008370600BB4201D100F04AFD24938368F7
:100C100026934368259300235A4633727360926982
:100C2000376091462AAE337273604B462CAA2A92E3
:100C3000002B01D100F0B7FC11000022002B00DCDA
:100C4000A4E07AAB00219846002721E02CAA90422C
:100C500000D18EE0799933607A9BB2682B912C9306
:100C6000002800D18AE078907A9279970770789876
:100C7000404503D07A99013106F0B0F90A2148467F
:100C800005F042F94B46092B00DC7DE08146716896
:100C90004346E022789352000AAB9B18013178A8B2
:100CA0001F70799728F0D4FE799B0A2148469A460E
:100CB00005F02AF93031C9B201230022009178A849
:100CC000514628F0F5FE79980F4B726831681B1A6F
:100CD0009A4201D900F078FD78A829F029F8789B8C
:100CE00030684345B2D1799A002A07D0012A00D151
:100CF000D4E3414606F05CF9799A30687260875413
:100D00007898B2E7D4FDFFFFFFFFFF3FC45B0410FC
:100D1000859A002A07D0012A00D1A2E3390006F003
:100D200047F9859A206862608554849883E67F9AA3
:100D3000002A07D0012A00D1A0E3414606F038F985
:100D40007F9A1898199286547E9802E7859A2360B4
:100D5000869B0D920E938497484647466BE67F9A92
:100D60001893809B19921A93434680A8C8467E9395
:100D7000EFE6799A33607A9B2B922C9343467893D3
:100D80007AAB9846180070E772682A992598249BD8
:100D900026AD8718AB4201D100F017FC269DAF426B
:100DA00009D92CADA94201D100F0FCFCB568AC46D4
:100DB000674500D8B1E3D54B1B1A934201D200F02E
:100DC00003FD24A828F0B4FF0822904630AB059319
:100DD00032AB30930993036880440700434501D147
:100DE00000F06EFC30938368059A93604368059A1F
:100DF000536043463B6000237B603B721000C34B53
:100E000052689A4201D100F0DFFC0122C04928F06B
:100E10008FFF0822904638AB369303688044070062
:100E2000434501D100F044FC36938368389343680E
:100E3000379343463B6000235A463B727B601268FF
:100E40003CAF92463B727B6053463EAA3C92002BDD
:100E500000D1C5E311000022002B72DD74AB99466E
:100E6000002398465B4600211D001FE03EAA9042E9
:100E700059D073993B60749BBA683D913E930028AA
:100E800056D072907492434673930370729848459B
:100E900003D07499013106F0A1F80A21504605F0FB
:100EA00033F85346092B49DD824679684B46D422F4
:100EB00072934346520073930AAB9B18424601312A
:100EC00072A81A7028F0C4FD739B0A2150469B46F5
:100ED00005F01AF83031C9B201230022009172A83E
:100EE000594628F0E5FD7398884B7A6839681B1AD3
:100EF0009A4201D900F068FC72A828F019FF729B91
:100F000038684B45B2D1739A002A07D0012A00D124
:100F1000D1E2494606F04CF8739A386843467A6045
:100F200083547298AFE7739A3B60749B3D923E93F3
:100F30004B46729374AB99461800A4E7AB467A68A7
:100F40003C99369D3798AC4638AD8318AC4500D1F6
:100F500058E3389DAB4209D93EADA94201D100F01A
:100F60002CFCBD68A846434500D8DDE2674B1B1A40
:100F7000934201D200F028FC36A828F0D9FE804622
:100F8000082242AB069344AB42930A93036842445F
:100F90009146934200D1A2E342938368069A9360FC
:100FA0004368069A536043464A461A600023424605
:100FB0001372069853604268544B9A4201D100F074
:100FC00003FC544B01221900029328F0B1FE0822C1
:100FD00080464AAB4893036842449146934200D10D
:100FE00076E3489383684A9343684A464993434665
:100FF0001A6000234246536013725A465268924662
:101000004EAA904650AA4E924246536013725346DF
:10101000002B00D1FEE2002250A9002B00DC80E072
:10102000002291465A466EAB00219B46079222E071
:1010300050AA90425ED0414642460B606E9B6D992D
:1010400092684F91509300285AD06C906E924B4604
:101050006D9303706C98584503D06E99013105F07B
:10106000BDFF0A21504604F04FFF5346092B53DDC4
:101070004346824659685B46C8226C934B465200F1
:101080006D930AAB9B184A4601316CA81A7028F080
:10109000DFFC6D9B0A2150461D0004F035FF303106
:1010A000C9B20123002200916CA8290028F000FD9C
:1010B00043466D9806CB154B1B1A9A4200D983E321
:1010C0006CA828F035FE434618686C9B5B45AFD191
:1010D0006D9A002A08D0012A00D1F9E1594605F09D
:1010E00067FF43466D9A186843465A604B468354DF
:1010F0006C98ACE7424613606E9B6D9A50934F928A
:101100005B466C936EAB9B461800A0E7FFFFFF3F6A
:10111000C85B0410CC5B0410079B4E999B4643466A
:101120005A68489D4998AC464AAD8318AC4500D1F1
:1011300083E24A9DAB4209D950ADA94200D139E3BF
:101140004546AD68A9464B4500D8F5E1D24B1B1A80
:10115000934200D238E348A828F0EAFD81460822ED
:1011600054AB079356AB54930B9303684A4492468F
:10117000934200D1BAE254938368079A936043681C
:10118000079A53604B4652461A6000234A46137230
:10119000079853604268C04B9A4200D114E3012281
:1011A000029928F0C5FD082281465CAB5A9303687A
:1011B0004A449246934200D19FE25A9383685C93DB
:1011C000436852465B934B461A6000234A461372AB
:1011D00053605A469268934660AA914662AA60920A
:1011E0004A46536013725B46002B00D12DE2002269
:1011F00062A9002B73DD68AB1D00002300219A4615
:1012000020E062AA90425DD08A680B60689B679973
:101210006293619100285AD0669068925346679312
:1012200003706698A84203D06899013105F0D6FE94
:101230000A21584604F068FE5B46092B4CDD4B46FC
:10124000834659685046BC2367905B000AA8C018C3
:1012500053460131037066A8669528F0F9FB67993B
:10126000584602910A2104F04FFE3031C9B20123E1
:101270000022009166A8029928F01AFC48464946C7
:101280004268854B679809681B1A9A4200D99BE20D
:1012900066A828F04DFD4946669B0868AB42B0D170
:1012A000679A002A08D0012A00D120E1290005F020
:1012B0007FFE4B46679A18684B465A6053468354E4
:1012C0006698ABE7679A0B60689B6192629368AB24
:1012D000669518001D00A1E74B4660995A685A9D13
:1012E0005B98AC465CAD8318AC4500D1C0E15C9D19
:1012F000AB4209D962ADA94200D162E24D46AD6868
:10130000AA46534500D81FE1634B1B1A934200D2F3
:101310005AE25AA828F00CFD039B824618000830B8
:101320001860534608221B6852449346934200D1EA
:10133000EAE1039A136053469B68936053465B68E7
:10134000039A536053465A461A600023524613725A
:101350006098536062AB984204D04B469968013163
:1013600005F03CFE5A985CAB984203D05C99013181
:1013700005F034FE54980B9B984204D0079B996863
:10138000013105F02BFE4E9850AB984204D04346F5
:101390009968013105F022FE48984AAB984203D083
:1013A0004A99013105F01AFE42980A9B984204D0EE
:1013B000069B9968013105F011FE3C983EAB9842BE
:1013C00003D0B968013105F009FE369838AB984270
:1013D00003D03899013105F001FE3098099B9842FD
:1013E00004D0059B9968013105F0F8FD2A982CABD3
:1013F000984203D0B168013105F0F0FD249826AB86
:10140000984203D02699013105F0E8FD1E98089B0B
:10141000984204D0049B9968013105F0DFFD1898CB
:101420001AAB984203D01A99013105F0D7FD1298F2
:1014300014AB984203D01499013105F0CFFD0C98FC
:101440000EAB984203D0A168013105F0C7FD0398A7
:101450008B239B009D44F0BCBB46B246A946A046E8
:10146000F0BDF032FF320AAB9B181B780370859AEF
:101470002068626085548498FFF7DDFAD832FF3225
:101480000AAB9B181B7803707F9A189819928654A0
:101490007E98FFF75EFBC046FFFFFF3FC032FF3282
:1014A0000AAB9B181B780370799A30687260875476
:1014B0007898FFF7DAFBA832FF320AAB9B181B784B
:1014C00003704346739A38687A6083547298DAE4FA
:1014D0009032FF320AAB9B181B78037043461868A2
:1014E00043466D9A5A604B4683546C98AFE5783208
:1014F000FF320AAB9B181B7803704B46679A08684B
:101500005A6053468354669888E600900022002172
:1015100018A828F03BFBFFF74AFB009000220021AF
:10152000300028F033FB4FE4009063460022002196
:10153000380028F02BFB22E50090634600220021B2
:10154000404628F023FB09E6009063460022002174
:10155000484628F01BFBDFE6012200210092200014
:1015600000229B4B28F012FBFFF770FA01220021AA
:10157000974B009218A8002228F008FB199A13989C
:10158000129B14AD18991618AB4201D0FFF7F8FA68
:101590000F2E01D8FFF702FB1AADA94201D0FFF7C9
:1015A000F7FAFFF7FBFA01220021894B0092300085
:1015B000002228F0EBFA72682598249B26AD2A9920
:1015C0008718AB4201D0FFF7E9FB0F2F01D8FFF7D7
:1015D000F2FB2CADA94201D0FFF7E8FBFFF7EBFBD4
:1015E000012200217A4B00923800002228F0CEFA26
:1015F000369D7A68AC46379838AD3C998318AC452F
:1016000000D0A6E40F2B00D8B0E43EADA94200D034
:10161000A7E4ABE4012200216D4B0092404600227A
:1016200028F0B4FA4346489D5A68AC4649984AADFA
:101630004E998318AC4500D07BE50F2B00D885E58B
:1016400050ADA94200D07BE580E501220021604B2E
:1016500000924846002228F099FA4B465A9D5A6853
:10166000AC465B985CAD60998318AC4500D03EE613
:101670000F2B00D848E662ADA94200D03EE643E613
:1016800043685A1C013347D101235B42FFF7F8F945
:1016900043685A1C013346D101235B42FFF79AFA93
:1016A00043685A1C013353D101235B42FFF7B2FA5E
:1016B00043685A1C013344D101235B42FFF7B8FB56
:1016C00043685A1C013335D101235B42FFF78FFB7E
:1016D00043685A1C013342D101235B4285E44368CD
:1016E0005A1C013342D101235B425AE443685A1C1D
:1016F00001334AD101235B4242E543685A1C01335E
:101700003CD101235B425CE553465B685A1C0133C4
:1017100042D101235B4213E6310014A805F048FCD6
:101720006B68FFF7ADF94146089805F041FC736816
:10173000FFF750FA4146099805F03AFC7B68FFF73D
:1017400056FB414638A805F033FC7B68FFF770FB79
:10175000390026A805F02CFC7368FFF75BFA4946B0
:101760004AA805F025FC43465B683EE449460A98D2
:1017700005F01EFC43465B68FFF713FC51465CA86E
:1017800005F016FC4B465B681BE551460B9805F0CF
:101790000FFC4B465B68F3E4594605F009FC5346E1
:1017A0005B68CDE50F25AC46FFF702FB0F25AC4685
:1017B000FFF7F0F90F25A946C5E40F25A846FFF766
:1017C000D2FB0F25AA469CE502481CF0BBFBC04695
:1017D000A4640410AC5B0410F0B5C646C36800B541
:1017E0000400984602F022FA226A636A06000F009B
:1017F000801A99410023224A04F0D4FB00281FDDFF
:10180000A5683C214519280004F07EFB2800A16052
:101810003C2104F079FB65683C214519280004F05F
:1018200073FB280061603C2104F06EFB23681821E3
:10183000C01804F069FB012321600B290BDDE36074
:101840004346002B02D0E368002B06D02662676275
:1018500080BCB846F0BD0023F1E7636901331E2B5D
:1018600001DC6361F2E701222369626101330C2B21
:1018700004DDA36922610133A361E7E72361E5E7A2
:1018800040420F00F0B557464546DE464E46E0B5AD
:10189000056C070093B0002D00D192E007AB99468C
:1018A0000DAB98466C4B05AC00936C4B9A466C4B59
:1018B00001936C4B02936C4B03934B4623602B6854
:1018C0006E689B4604960F2E00D99AE0012E00D038
:1018D000ABE01B7823724A4600236660935543466B
:1018E000A361AB69EE699B4604960F2E00D9A1E077
:1018F000012E00D094E01A782023E25442460023BF
:10190000E66193552B6B022200995046236327F022
:1019100009FC216B504627F009FE050001220199C0
:1019200027F000FC28006268216827F0FBFB050017
:101930000222029927F0F6FB2800E269A16927F04C
:10194000F1FB036805000C3B1B68C318DE6F002E1B
:1019500000D17EE0337F002B3AD02723F15C2800B2
:1019600027F070FB27F0DAFA3D6C002D17D06B6B77
:10197000A8693B642B002033984203D0296A0131C7
:1019800005F02CFB2B0028680833984203D0A96887
:10199000013105F023FB3821280005F01FFBA06969
:1019A000404503D0216A013105F018FB2068484505
:1019B0001BD0A168013105F011FB3D6C002D00D05A
:1019C0007BE713B0F0BCBB46B246A946A046F0BDCB
:1019D00030000EF01BFB3368039A9B690A21934287
:1019E000BDD0300098470100B9E73D6C002DE8D02C
:1019F0004B4623602B686E689B4604960F2E00D8DA
:101A000064E70022200004A927F06AFF049B2060FD
:101A1000A3603200594605F0CBFA049E22685BE7CA
:101A2000002E00D16AE740460CE0002E00D152E7BC
:101A30004846EEE7002204A90BA827F051FF049BBB
:101A4000A06123623200594605F0B2FA049EA269F1
:101A500055E71CF04FFAC046D05B0410E841002067
:101A6000CC5B0410D45B0410F5030010F0B5DE4627
:101A7000454657464E46E0B5050093B0483506004A
:101A8000290005A8FEF772FF2B23002204A90DAC44
:101A90000BA804930B9427F023FF049FD7492B2214
:101AA0000B900D9705F084FA00220B9B0C97DA55EA
:101AB000452328001193FFF78FFE40239846B0443A
:101AC000404605A9FEF79EFE0B98A04203D00D9953
:101AD000013105F083FA059807AFB84203D00799A2
:101AE000013105F07BFA3D239C46B44463460193E3
:101AF0003C239C46B4446346029303239A46C04B5E
:101B0000039302990198FEF791FD002840D05346B7
:101B1000290005A8012B00D1AEE2FEF727FF4C23D8
:101B2000002204A90BA804930B9427F0D9FE049B70
:101B30004C229B46039981460D930B9005F038FA91
:101B40005B464A4659460C930023280053544533BC
:101B50001193FFF741FE404605A9FEF753FE0B988F
:101B6000A04203D00D99013105F038FA0598B8422A
:101B700000D10DE20799013105F030FA01235B42F3
:101B80009C4602990198E244FEF750FD0028BED120
:101B90008346290005A8FEF7E9FE3323002204A9A5
:101BA0000BA804930B9427F09BFE049B33229946C9
:101BB00094490D930B9005F0FBF94B464A46594664
:101BC0000C930B9B2800995445231193FFF704FEB7
:101BD000404605A9FEF716FE0B98A04203D00D99CA
:101BE000013105F0FBF90598B84203D0079901319E
:101BF00005F0F4F90C2005F0E1F9834B29000360AE
:101C0000B06305A8FEF7B2FE4423002204A90BA886
:101C100004930B9427F064FE049B44229A467B496C
:101C200081460D930B9005F0C3F953464A46514641
:101C30000C9300232800535445331193FFF7CCFD38
:101C4000404605A9FEF7DEFD0B98A04203D00D9992
:101C5000013105F0C3F90598B84203D00799013165
:101C600005F0BCF903239A46694BB14603935346EA
:101C7000AA461D004B460198996BFEF755FD0028BA
:101C80003AD0012D00D12AE2514605A8FEF76EFE9A
:101C90004B23002204A90BA804930B9427F020FEE9
:101CA000049E03994B220B900D96029005F080F94B
:101CB0000023029A50460C96935545331193FFF733
:101CC0008BFD404605A9FEF79DFD0B98A04203D071
:101CD0000D99013105F082F90598B84200D15CE117
:101CE0000799013D013105F079F94B460198996B4F
:101CF000FEF71AFD0028C4D155464E4629008146FC
:101D000005A8FEF733FE3223002204A90BA8049392
:101D10000B9427F0E5FD049B32229A463D490D9332
:101D20000B9005F045F95346524649460C930B9BE0
:101D30002800995445231193FFF74EFD404605A90D
:101D4000FEF760FD0B98A04203D00D99013105F01C
:101D500045F90598B84203D00799013105F03EF9DD
:101D6000B06B002802D0082105F038F90C2005F0EE
:101D700025F9294B29000360B06305A8FEF7F6FD9D
:101D80004523002204A90BA804930B9427F0A8FD77
:101D9000049A224992460D92452281460B9005F005
:101DA00007F9524651460C9200234A4628005354E4
:101DB00045331193FFF710FD404605A9FEF722FDBC
:101DC0000B98A04203D00D99013105F007F9059851
:101DD000B84203D00799013105F000F903239A4670
:101DE0000B4BB14603935346AA461D004B46019840
:101DF000996BFEF799FC00284DD011E0D85B0410D8
:101E00007C5C0410045C0410A0610410CC5C041021
:101E10008C5D0410145D0410B0610410D85D0410D2
:101E2000012D00D1BBE0514605A8FEF79FFD4B23D5
:101E3000002204A90BA804930B9427F051FD049EE3
:101E400003994B220B900D96029005F0B1F80023F8
:101E5000029A50460C96935545331193FFF7BCFCFC
:101E6000404605A9FEF7CEFC0B98A04203D00D9981
:101E7000013105F0B3F80598B84200D186E0079922
:101E8000013D013105F0AAF84B460198996BFEF728
:101E90004BFC0028C4D155464E462900814605A872
:101EA000FEF764FD3223002204A90BA804930B94CF
:101EB00027F016FD049B32229A46A5490D930B90FC
:101EC00005F076F85346524649460C930B9B280082
:101ED000995445231193FFF77FFC404605A9FEF76F
:101EE00091FC0B98A04203D00D99013105F076F8D2
:101EF0000598B84203D00799013105F06FF8B06B2F
:101F0000002802D0082105F069F85B46002B00D0BC
:101F10007FE0290005A8FEF729FD2623002204A959
:101F20000BA804930B9427F0DBFC049B2622994614
:101F300088490D930B9005F03BF84B464A465946AD
:101F40000C930B9B2800995445231193FFF744FCF5
:101F5000404605A9FEF756FC0B98A04203D00D9908
:101F6000013105F03BF80598B84203D007990131DB
:101F700005F034F8012330003370FFF783FC13B011
:101F8000F0BCBB46B246A946A046F0BD013D2DE7D8
:101F900001235B429C46E244B3E5013D6AE65546B7
:101FA00005A82900FEF7E2FC4123002204A90BA8A2
:101FB00004930B9427F094FC049B41229A466649B3
:101FC0000D934E460B90814604F0F2FF53464A466D
:101FD00051460C9300232800535445331193FFF7C7
:101FE000FBFB404605A9FEF70DFC0B98A04203D071
:101FF0000D99013104F0F2FF0598B84203D007991A
:10200000013104F0EBFFB06B002802D0082104F08E
:10201000E5FF290005A8FEF7A9FC2423002204A956
:102020000BA804930B9427F05BFC049B2422994695
:102030004A490D930B9004F0BBFF4B4600224946E2
:102040000C930B9B28005A5445231193FFF7C4FBB4
:10205000404605A9FEF7D6FB0B98A04203D00D9988
:10206000013104F0BBFF0598B84203D00799013154
:1020700004F0B4FF03237EE7FEF778FC422300223E
:1020800004A90BA804930B9427F02AFC049B42227A
:102090009A46334981460D930B9004F089FF5346CD
:1020A0004A4651460C93002328005354453311935C
:1020B000FFF792FB404605A9FEF7A4FB0B98A04250
:1020C00003D00D99013104F089FF0598B84203D07F
:1020D0000799013104F082FF01239B468AE55546AA
:1020E00005A82900FEF742FC4123002204A90BA801
:1020F00004930B9427F0F4FB049B41229A46164963
:102100000D934E460B90814604F052FF53464A46CB
:1021100051460C9300232800535445331193FFF785
:102120005BFB404605A9FEF76DFB0B98A04203D070
:102130000D99013104F052FF0598B84203D0079978
:10214000013104F04BFF01239C46E34408E6C046FE
:10215000145D0410485E0410485D0410205E0410F5
:10216000385C0410F0B54E46DE465746454600231F
:10217000E0B5E24AA1B0037001924033E04A0500A5
:102180009B4600230A92DF4A48350B921BAA9246CF
:10219000DD4A04000692DD4A00260292DC4AA94686
:1021A0000392DC4A83440592DB4A0492DB4A0C9298
:1021B000DB4A0D92DB4A0792DB4A1092DB4A0E9211
:1021C000DB4A0892DB4A0992DB4A0F92DB4A119202
:1021D000022B00D195E0022B00D9B3E1002B00D1F6
:1021E00011E20C2004F0EAFE4525019B49460360FC
:1021F000A06313A8FEF7BAFB0A9919A8FEF7FCF82A
:102200004846D0271F95FFF7E7FA13A95846FEF76F
:10221000F9FA13A8FEF7E0FAF0223F063B699200B4
:102220001340FB61494613A8FEF7A0FB0B9919A8C0
:10223000FEF7E2F848461F95FFF7CEFA584613A975
:10224000FEF7E0FA13A8FEF7C7FA80233A699B026B
:102250005340B02252031340FB61002E3CD13D009D
:10226000A06BB74E03685B68002198478046002842
:1022700000D083E1A06B002802D0082104F0AEFE5C
:102280000C2004F09BFE029B039A0360A063A02134
:10229000F0272B6949004B40BF003B40EB61904762
:1022A000002800D0EFE0A06B002802D0082104F045
:1022B00095FE0C2004F082FEF022019B9200036048
:1022C0002B69013E1340A063EB61002E00D19EE11B
:1022D0004246049B002AC7D02000FFF7D3FA01260C
:1022E000D022120653689B0100D586E180239B040F
:1022F0005361FA20800001F09DFB2378022B00D06F
:1023000069E70C2004F05AFE4525019B494603600D
:10231000A06313A8FEF72AFB089919A8FEF76CF82A
:10232000D02748461F95FFF757FA13A95846FEF7DE
:1023300069FA13A8FEF750FA40223F063B69494666
:102340005340F02292001340FB6113A8FEF70EFBEE
:10235000099919A8FEF750F848461F95FFF73CFA6F
:10236000584613A9FEF74EFA13A8FEF735FA802354
:102370003A699B025340B02252031340FB61002E86
:10238000AAD1A06B402103683D005B6898476C4E62
:102390008046002838D1A06B002802D0082104F024
:1023A0001DFE0C2004F00AFE029B039A0360A0634A
:1023B00080212B694B40F02189000B40EB6180218B
:1023C000904700285FD1A06B002802D0082104F0BC
:1023D00005FE0C2004F0F2FD4022019B013E03604B
:1023E0002B69A0635340F02292001340EB61002E52
:1023F00000D1C2E14246049B002A00D06CE7402194
:10240000984780460028C6D0494613A8FEF7AEFA82
:10241000534619934E23002212A919A8129327F0AC
:102420005FFA8046129A069917001B924E22199065
:1024300004F0BEFD4146002348461A97CB5545336C
:102440001F93FFF7C9F9584613A9FEF7DBF919984E
:10245000504503D01B99013104F0C0FD139815AB12
:10246000984203D01599013104F0B8FDB0222B69D0
:1024700052031340EB610323A06B237003685A6877
:102480000123984694E7494613A8FEF76FFA53468E
:1024900019934D23002212A919A8129327F020FAAC
:1024A000129E4D220599050019901B9604F080FD9F
:1024B000002348461A96AB5545331F93FFF78CF916
:1024C000584613A9FEF79EF91998504503D01B9959
:1024D000013104F083FD139815AB984203D0159990
:1024E000013104F07BFDD021B02209060B695203B3
:1024F0001340CB6103232370EEE6C046A0610410B5
:10250000705E04109C5E0410C85E0410B06104107C
:102510002D050010185F041061040010685F04109E
:10252000B85F0410E85F041038600410686004109D
:10253000B8600410E86004101461041040610410D5
:1025400088130000032B00D0CAE64D4613A82900CB
:10255000FEF70CFAD74919A8FDF74EFF45232800CE
:102560001F93FFF739F9584613A9FEF74BF913A843
:10257000FEF732F92000FFF785F9FEE7494613A878
:10258000FEF7F4F9534619934E23002212A919A815
:10259000129327F0A5F98046129A069917001B920C
:1025A0004E22199004F004FD4146002348461A9734
:1025B000CB5545331F93FFF70FF9584613A9FEF784
:1025C00021F91998504503D01B99013104F006FDFB
:1025D000139815AB984203D01599013104F0FEFC15
:1025E000B0222B6952031340EB610323A06B2370CD
:1025F00003685A680123984649E68023D0229B0449
:102600001206936175E62000FFF730FA68E643464C
:10261000002B00D060E64526494613A8FEF7A6F930
:102620000C9919A8FDF7E8FE48461F96FFF7D4F865
:1026300013A95846FEF7E6F813A8FEF7CDF82000D8
:10264000FFF720F9494613A8FEF790F90D9919A84C
:10265000FDF7D2FE48461F96FFF7BEF813A958466D
:10266000FEF7D0F813A8FEF7B7F880232A69DB023B
:102670005340B022A06B52031340EB6103688E4AB3
:1026800000215B689046D02698473606051E38D153
:10269000A06B002802D0082104F0A0FC0C2004F05C
:1026A0008DFC029B039A0360A063C021F02733696D
:1026B00049004B40BF003B40F3619047002840D1A8
:1026C000A06B002802D0082104F088FC0C2004F044
:1026D00075FCF022019B920003603369A0631340F4
:1026E000F36101235B429C46E0444346002B00D14A
:1026F000E4E0049B002D00D0EEE500219847051E84
:10270000C6D0494613A8FEF731F9079919A8FDF775
:1027100073FE452348461F93FFF75EF8584613A9FA
:10272000FEF770F813A8FEF757F8B022336952038A
:102730001340F3610323A06B2370036801255A68DB
:10274000B3E7494613A8FEF711F9059919A8FDF753
:1027500053FE452348461F93FFF73EF8584613A9FA
:10276000FEF750F813A8FEF737F8B022336952038A
:102770001340F36103232370AEE54346002B00D0E2
:10278000AAE54526494613A8FEF7F0F80C9919A8C2
:10279000FDF732FE48461F96FFF71EF813A958466C
:1027A000FEF730F813A8FEF717F82000FFF76AF8D5
:1027B000494613A8FEF7DAF80F9919A8FDF71CFE91
:1027C00048461F96FFF708F813A95846FEF71AF86F
:1027D00013A8FEF701F880232A69DB025340B022D8
:1027E000A06B52031340EB610368334A40215B68DE
:1027F0009046D02698473606051E3AD1A06B002891
:1028000002D0082104F0EAFB0C2004F0D7FB029B65
:10281000039A0360A063C02133694B40F021890013
:102820000B40F361C021904700288AD1A06B00289B
:1028300002D0082104F0D2FB0C2004F0BFFB4022A0
:10284000019BA063036033695340F0229200134060
:10285000F36101235B429C46E0444346002B00D1D8
:10286000C6E0049B002D00D036E540219847051EA8
:10287000C4D0494613A8FEF779F8079919A8FDF7BF
:10288000BBFD452348461F93FEF7A6FF584613A9F4
:10289000FDF7B8FF13A8FDF79FFFB022336952037D
:1028A0001340F3610323A06B2370036801255A686A
:1028B000B1E7C0466861041088130000002D00D005
:1028C0000AE5494613A8FEF751F80C9919A8FDF737
:1028D00093FD453548461F95FEF77EFF13A95846E0
:1028E000FDF790FF13A8FDF777FF2000FEF7CAFF62
:1028F000494613A8FEF73AF8109919A8FDF77CFD90
:1029000048461F95FEF768FF13A95846FDF77AFF62
:1029100013A8FDF761FF802332695B035340B022A7
:10292000A06B52031340F3610368A44A00215B6863
:102930009046D02698473606051E39D1A06B002850
:1029400002D0082104F04AFB0C2004F037FB029B64
:10295000039A0360A063E021F027336949004B40EC
:10296000BF003B40F3619047002800D0E9E6A06B30
:10297000002802D0082104F031FB0C2004F01EFBDB
:10298000F022019B920003603369A0631340F3615E
:1029900001235B429C46E0444346002B00D1C3E048
:1029A000049B002D00D097E400219847051EC5D058
:1029B000494613A8FDF7DAFF079919A8FDF71CFD92
:1029C000452348461F93FEF707FF584613A9FDF716
:1029D00019FF13A8FDF700FFB0223369520313401B
:1029E000F3610323A06B2370036801255A68B2E7E3
:1029F000002D00D070E4494613A8FDF7B7FF0C99ED
:102A000019A8FDF7F9FC453548461F95FEF7E4FE89
:102A100013A95846FDF7F6FE13A8FDF7DDFE2000CA
:102A2000FEF730FF494613A8FDF7A0FF119919A83A
:102A3000FDF7E2FC48461F95FEF7CEFE13A9584667
:102A4000FDF7E0FE13A8FDF7C7FE802332695B03A4
:102A50005340B022A06B52031340F3610368574AFE
:102A600040215B689046D02698473606051E3BD12C
:102A7000A06B002802D0082104F0B0FA0C2004F06A
:102A80009DFA029B039A0360A0638021F0273369BB
:102A900049004B40BF003B40F3619047002800D005
:102AA0004FE6A06B002802D0082104F097FA0C2012
:102AB00004F084FA4022019BA06303603369534011
:102AC000F02292001340F36101235B429C46E044F4
:102AD0004346002B4ED0049B002D01D0FFF7FCFB9A
:102AE00040219847051EC3D0494613A8FDF73EFF75
:102AF000079919A8FDF780FC452348461F93FEF768
:102B00006BFE584613A9FDF77DFE13A8FDF764FE82
:102B1000B022336952031340F3610323A06B237087
:102B2000036801255A68B0E7002D01D0FFF7D4FBF8
:102B3000494613A8FDF71AFF0E9919A8FDF75CFC8A
:102B4000452348461F93FEF747FE13A95846FDF755
:102B500059FE13A8FDF740FE2000FEF793FEA06B80
:102B6000002802D0082104F039FA0223002623703D
:102B7000FFF7B6FB002D01D0FFF7AEFB494613A8C7
:102B8000FDF7F4FE0E9919A8FDF736FC45234846DB
:102B90001F93FEF721FE13A95846FDF733FE13A835
:102BA000FDF71AFE2000FEF76DFEA06B002802D094
:102BB000082104F013FA0123D8E7C0468813000067
:102BC00010B504F0F7FBFA20C00000F033FF014815
:102BD000FFF7C8FA282E002010B5104806F082FF33
:102BE0000F4B0B201A0019000C3224315A60D961A6
:102BF000002224215A5410219865D9650020002113
:102C00009A601A731A621A649A64DA641A655A65C9
:102C1000044A9866D9661A6610BDC046B8440020BA
:102C2000282E0020E7070000094A10B594464024EA
:102C3000830063441A68C0006240803414408022DC
:102C4000520113431C60034B9C466044416010BD1D
:102C500004C0014000400140074B80009C46604496
:102C60000368C90092000A435A400C231A4080238B
:102C70005B0103431A60704704C00140084B8000A9
:102C80009C466044002905D0802340229B010343D9
:102C90001A607047C02340229B0103431A60F8E783
:102CA00004C001404021F0B5D6464F46464688460E
:102CB0008031D0258C46C0B5BB3980270023012444
:102CC0008A46104A2D067F01044211D02100994006
:102CD0004646A962A96111687140664631403E00CE
:102CE00016433160084ED900B146564649440E603D
:102CF0000133400804321E2BE6D1E0BCBA46B1468F
:102D0000A846F0BD04C0014004400140024B1868D1
:102D10008007C00F7047C04600C0064070B5EFF393
:102D2000108C72B60D4D2B68002BFCD0BFF35F8F5B
:102D30000724CB08C618C05C01230C40A3401C002C
:102D40000440034207D118433070BFF35F8F2C60FB
:102D50008CF3108870BD100001F034FD2C0100D000
:102D6000F8B54746CE46884680B5EFF3108C72B66C
:102D7000214D2C68002CFCD0BFF35F8F9A422CD8D9
:102D8000D4080727055D061901241740BC402C42D2
:102D90001FD007210127894609E0D408055D0619DF
:102DA0004C4639001440A1400C00294211D0013298
:102DB0009342F2D201204042BFF35F8F00220E4BBC
:102DC0001A608CF3108800280FDBC0BCB946B046EF
:102DD000F8BD254310003570EEE7BFF35F8F002389
:102DE0002B608CF31088012040424346002BECD02E
:102DF000089801F0E7FCC0462C0100D00021044BEC
:102E0000044ABFF35F8F02C39342FAD17047C046B2
:102E1000000100D0800100D0044A1078431CDBB2CE
:102E2000172B00D9102313707047C0467C1E00205A
:102E300010B5064B064C82B00100009318221F23E8
:102E40002000FFF78DFF02B010BDC046B86104102E
:102E5000184A002001238340002904D0034A13604C
:102E6000034A13607047034A1360FBE780E200E007
:102E700000E100E080E100E001238340014A1360AB
:102E80007047C04600E200E0084B10309B688000AD
:102E9000C358002B07D0064A00209B1A2F229A42C3
:102EA0004041C0B270470020FCE7C04600ED00E0A2
:102EB000801E0020024B10309B688000C058704775
:102EC00000ED00E070B50D00EFF3108672B60F4A0A
:102ED0001368002BFCD0BFF35F8F0D4B10309B6845
:102EE00084001B590B4A934203D09D4201D001F04C
:102EF00081FC074B9B681D51BFF35F8FBFF35F8F52
:102F00000022024B1A6086F3108870BD240100D0A5
:102F100000ED00E0CD010010F0B557464E46DE460C
:102F20004546E0B585B0060000911700EFF3108B21
:102F300072B66A4A1368002BFCD0BFF35F8F00257E
:102F4000674B5D579A46002D00DA8BE06B00654CAD
:102F500001935B199B009846A146C1444B465246DB
:102F60009B7910361370604BB6009B6899590B1B08
:102F70002F2B33D95D4B994200D0ACE0019B4246E8
:102F80009C465B4B6544AD0063535A4B0232A2181A
:102F9000043B9B1A1B05584A5B0D651913436B8054
:102FA000564B0121AB80FF23AB71009BEF71AB60EF
:102FB0004B460B4319004C4B9B689951BFF35F8FF5
:102FC000BFF35F8F0022454B1A608BF3108805B06A
:102FD000F0BCBB46B246A946A046F0BD01200A009F
:102FE0008243D3798C46BB4231D8454613004449CD
:102FF0001B1B5B415943090D3D4B63533D4B023550
:103000006519043B5B1B1B053B4D5B0D2B43AA461F
:103010004D466B800425AC465546E044131F44449E
:103020001B1B1B055B0D1D434B46997100999D8031
:1030300099604946DF71334B01431360BBE7580089
:10304000C01880002018C179B94211D902000623A6
:10305000D356002BF3DA0293131D9A462A4B61468E
:10306000039319E001F0C6FB002553465D576DE759
:10307000908802934005131D9A46031561469C46AD
:103080004046D444634604302018181AE023000553
:10309000400D1B021843039004235B429C46E1440D
:1030A00050464B461B1A1B055B0D9C46124B9571F7
:1030B00098466346404603439380019B5A19920009
:1030C000039BA418A380029B0E4AA371009B22605D
:1030D000E771A3606FE701F08DFB4FE7240100D09B
:1030E000F54E0020801E002000ED00E0CD01001014
:1030F00000A1FFFFB01E002000E0FFFF01BDFFFFA9
:10310000AAAA00000148804701BD0000F0B5DE46D4
:1031100057464E464546E0B50C0083B0EFF31088A5
:1031200072B65D4A1368002BFCD0BFF35F8F5B4B18
:103130005B499A68030010339F00D5598D4239D0FE
:10314000A5424AD0574EAA1B2F2A33D801229246B5
:10315000824091464846544A1268104001904846C1
:10316000524A1060BFF35F8FEFF305829346002A47
:1031700035D0934201D001F03DFB2A0053469A43DB
:103180009068844208D175E04B005B189B00F318EF
:103190009868A04234D01A00062151560029F3DA6B
:1031A000844253D0019B002B26D04A46404B1A60E4
:1031B0003D4B1A60394B9B68DD51BFF35F8FBFF306
:1031C0005F8F0022344B1A6088F3108803B0F0BC84
:1031D000BB46B246A946A046F0BD0D00EAE72A006C
:1031E00053469A4390688442D6D106201056130065
:1031F000002809DA0D0031E04A462C4B1A60D9E765
:1032000006201856002822DB420011188900741885
:103210008A46A1689960E179D97106216156997150
:10322000002925DBA488F11A6405241554440919E2
:10323000E0240905490D24022143998013181D4AF1
:103240009B001178F31899711070ABE71300594681
:10325000002914D1FF3191711749918015490A78DD
:103260009A71164A9B1B5B415A43120D0A7099E7EB
:103270001349E2E70620105613000028C4DA114A69
:103280001149D21A083A5002400D014399800F4962
:1032900052080A43DA8085E7240100D000ED00E0FF
:1032A000CD010010801E002000E100E080E100E080
:1032B00080E200E0F54E002001BDFFFFAAAA000059
:1032C00001BD0000BA1E002000F0FFFF00F8FFFF64
:1032D00070B5EFF3058101240443EFF3108C72B64F
:1032E000214A1368002BFCD0BFF35F8F1F4B0500F2
:1032F0001F4AED1A6D416A43120D1E4D8900AE68DA
:1033000052B27658A6421CD00621595691421CD082
:1033100012215956914222D01E215956914220D055
:103320002A2159560324914210D0134B19781A7050
:103330008171BFF35F8F00220B4B1A608CF31088F2
:1033400070BDAB680D4C5C50EFE7002461000919BB
:1033500089005B18FF21997109499980E5E70124EB
:10336000F4E70224F2E7C046240100D0801E0020CA
:10337000AAAA000000ED00E0F54E0020CD010010EB
:1033800001BDFFFF054B064A1360064A13605360F8
:103390009360D36013615361936170478080808034
:1033A00000E400E004E400E010B5084B084C82B0F3
:1033B00001000093002205232000FFF7D1FC002824
:1033C00001DB1F23181A02B010BDC046D4610410DF
:1033D000FA4E0020024B9C46614489000160704710
:1033E0004000003410B50400FFF716FD0100200076
:1033F000FFF7F0FFFF232371BFF35F8F10BDC046BF
:1034000010B50400FFF708FD01002000FFF7E2FF00
:10341000FF23A380BFF35F8F10BDC04610B504002B
:103420000120FFF705FD034BC3189B002360BFF38A
:103430005F8F10BD40000034034B9C4661448900FF
:103440000160BFF35F8F70474000003483680B4812
:1034500010B58446614462441201090159189B1851
:103460005C684A680120944201D802D00020C0B2B2
:1034700010BD1A680B689A42F9D8F7E7FFFFFF0FF3
:103480000A4B1968EFF3108072B60A68002AFCD064
:10349000BFF35F8F1B68BFF35F8F00221A6080F35A
:1034A000108840BF002000217047C046C44E002055
:1034B000F8B5574645464E46DE46E0B598460CAB55
:1034C0001C780DAB1B78070091469A460568002CC6
:1034D0005ED1AC7B002C3BD0660029683619033ED8
:1034E00089194B78AB73002B00D1EB7300238B70E1
:1034F0004B700B702D4BE218BB6812019B184A46AB
:103500001A6042465A600A9A9A600B9ADA6000235F
:103510008B704B700B706B7B9B46002B2BD022006B
:103520005946A8686B6898472A68002816D05B46F9
:1035300058465B005B449619033BB070D118D35CCE
:10354000002B00D073705B460C706B735C4513D01E
:10355000F0BCBB46B246A946A046F8BD5B465B0040
:103560005B44033BD3189C709119925D002A00D0F4
:103570005A705B460B706C734A464346387D00F0C8
:10358000E9FB051E0AD10E9B002BE1D01D70DFE781
:10359000660029683619033E8919ABE75346002BAC
:1035A000F1D12100386800F0F9FDECE7FFFFFF0FD3
:1035B000F0B5DE4657464E4645460023E0B58BB093
:1035C0000893684B8200D45800239B46099000F072
:1035D0002DFB02000B006068EFF3108A72B65646AE
:1035E00001680029FCD0B246BFF35F8F21684F7B92
:1035F0008C46002F2ED0A5685B49A9467918090191
:10360000894449460868496805000E00AD1A9E4184
:10361000002E5FDD02000B00099800F09BFB0023E9
:103620000022994600230692079300239846636878
:10363000BFF35F8F5A461A608AF310884346002B07
:1036400012D10028C3D10BB0F0BCBB46B246A9468C
:10365000A046F0BD0023002299460023069207935E
:10366000002300209846E2E7089B494618023843A9
:10367000C047626805000E00EFF3108A72B6136847
:10368000002BFCD0BFF35F8F002E41DB2B003343B8
:1036900002D02369002B56D12368D97B002905D09D
:1036A0001A68480041185218033A57709A7B002A4A
:1036B00000D19F73DF73E268013FD35D0133D355BF
:1036C0005B4623616368BFF35F8F5A461A608AF3D3
:1036D00010887CE7002E02D1002D00D09AE700214F
:1036E000604600F0D9FC4B461A685B680692079367
:1036F0004B469B6898464B46DB689946E368DB1966
:10370000013B1B7808931B020343236100208EE7D3
:103710002369002BC0D0069A079B8021521BB3411E
:1037200009068B4202D30122104B52420021049120
:1037300001310391494601914146200002970091D1
:10374000FFF7B6FEBCE700F071FA2A00330012184A
:103750004B41802109068B42E8D30122034B5242A0
:10376000E4E7C046A84E0020FFFFFF0FFFFFFF7FEA
:1037700010B5144C6368002B04D00A211248FFF7DF
:1037800029FE10BD2300114A1021206800F09AFB89
:10379000032000F03FFA032000F044FB03200C4913
:1037A00000F092FAFFF738FB0A4B9C46032323757F
:1037B000D0231B061B6860446375074B8000606064
:1037C000DC60DAE7C81E0020C44E00204D34001033
:1037D000B135001040000034A84E0020004870476A
:1037E000C81E0020F0B557464E464546DE46E0B5B9
:1037F00085B0019310AB1B780600039300239A4613
:10380000984600927268EFF3108B72B61368002B23
:10381000FCD0BFF35F8F3568AC7B002C00D16FE02C
:1038200067002B683F19033FDB195A78AA73002AF7
:1038300000D1EA734B4AA118B268090152180098E6
:103840000199106051600E9991600F99D1604246C4
:103850009A705A701A706B7B9946002B00D170E0F9
:1038600022004946A8686B6898472A6800285BD000
:103870004B4648465B004B44D719033BB870D11800
:10388000D35C002B00D07B704B460C706B734C45A7
:1038900058D0F3681B19013B18787368BFF35F8F2A
:1038A00042461A608BF310885346002B08D1000261
:1038B000204305B0F0BCBB46B246A946A046F0BDC9
:1038C000039B002B4BD00E9B00200F9998470300C1
:1038D00004000D000B4342D000291ADA009A019B24
:1038E000121BAB410092019380221206934204D333
:1038F00001231D4C5B4200930194039B9A4681E790
:103900007368BFF35F8F1C608BF310880120404207
:10391000CFE700F08BF9802224184D411206009465
:1039200001959542E9D3E3E74B465B004B44033BEB
:10393000D3189C70D119D25D002A00D05A704B4622
:103940000B706C73307D009A019B00F003FA824685
:1039500000289ED02100306800F020FC99E700206C
:10396000A7E7C046FFFFFF0FFFFFFF7F407D7047C7
:10397000F0B504000D0006267642F717C646361944
:103980006F4100B584B08F4214D811D000F04EF9C9
:1039900032003B00121A8B41002B15DC002B3ED06D
:1039A0002000290000F080F904B080BCB846F0BDCA
:1039B0008642EBD90026002700F038F932003B00A0
:1039C000121A8B41002BE9DD002302930193154B62
:1039D0003200009314483B00FFF704FF0028DFDBB0
:1039E00000239846BC46114A114F7B6A9C4504D877
:1039F000B96AB142D4D29C45D2D11168EFF310809C
:103A000072B60B68002BFCD0BFF35F8F1368BFF357
:103A10005F8F4146196080F3108820BFE5E7002AD8
:103A2000BED0D1E781340010C81E0020C44E002053
:103A30000040054070B5060000F0F8F8FA220400D6
:103A40000D00002330000021920003F073F9802361
:103A5000001969411B06994202D3012002494042E4
:103A6000FFF786FF70BDC046FFFFFF7FF0B5EFF3A5
:103A70000583CE46474680B505000C0085B0002B77
:103A80000DD0324A0020536A9C4203D8926A01301A
:103A9000AA4232D305B0C0BCB946B046F0BD2C4EE8
:103AA000029301932B4B0200009330000B00FFF7B1
:103AB00099FE031EE5DD20BF7168EFF3108772B633
:103AC0000A68002AFCD0BFF35F8FDAB294463068F0
:103AD000427B624516D0FF2201681A408946510098
:103AE00088464946904441440339897800290BD1DE
:103AF0003269934210D131610EE0E31A5A1E9341AC
:103B0000D8B2C7E7FF221A40F1681B0A8A18013AA7
:103B10001278DBB29A4214D07368BFF35F8F002231
:103B20001A6087F31088094B00205A6A9442B1D872
:103B30009B6A0130AB42ADD2A41A631E9C41E0B235
:103B4000A8E7614600F02AFBE6E7C04600400540D2
:103B5000C81E002081340010F0B5EFF30582D64670
:103B60004F4646461000C0B51038EFF3108872B6C5
:103B7000214C2368002BFCD0BFF35F8F0123190079
:103B800081401E4D1F006963AA461D4D29601D4DD1
:103B90002E78AC463500C5402F402B4215D05346F9
:103BA0005F6A194B8500EB589F4218D36246174B4A
:103BB0008E43EB581670BFF35F8F0022226088F3AC
:103BC0001088002B06D0984704E0BFF35F8F276072
:103BD00088F31088E0BCBA46B146A846F0BD0C4B4D
:103BE00092009C46624413681360BFF35F8F00230A
:103BF000236088F31088EDE7280100D000400540DD
:103C00003C700540F94E0020D04E002000490020B5
:103C1000D03F054010B5034B01001800024AFFF7E2
:103C20007DF810BDF44E0020F8610410034B596A72
:103C30000A00986A596A8A42FAD1704700400540E2
:103C400070B504000D00174A536A1900966A536A4A
:103C50008B42FAD13000190024184D41AB4216D8DE
:103C600013D0104B2A005B6A9D4203D90D494B6A61
:103C70009342FCD3934207D10A4A02E0516A994227
:103C800002D1916AA142F9D370BDA642E9D9054B90
:103C90005B6A1C005A1CEFD0012201246442E51724
:103CA0005242E3E700400540064A536A9942FCD875
:103CB00007D1044B02E05A6A914202D19A6A8242C9
:103CC000F9D370470040054070B504000D00EFF3D4
:103CD000108672B61A4A1368002BFCD0BFF35F8FB0
:103CE000002D1BD02000FFF7E5F8164981420AD0CD
:103CF0002000FFF7E7F801212000FFF7ABF80123D0
:103D0000A340114A1360114BA400E550BFF35F8F2D
:103D100000220B4B1A6086F3108870BD0121A14070
:103D20000A4BA200D5500A4B20001A788A43054955
:103D30001A70FFF7EBF900212000FFF78BF8E5E799
:103D4000280100D0593B0010386005400049002090
:103D5000F94E0020F0B54F46D6464646C0B507009E
:103D60002B4C616A0D00A66A616AA942FAD18B42A6
:103D700008D805D00120E0BCBA46B146A846F0BD3F
:103D8000B242F7D9EFF3108A72B6224801680029CF
:103D9000FCD0BFF35F8F0125BD401F491C4C8846F6
:103DA000097889462943C9B28C4641466046087065
:103DB000391D890065630A511849B8004350216ACA
:103DC0000020294219D0616A0800A66A616A81420E
:103DD000FAD18B4219D801D1B24216D8CC450BD0BA
:103DE0000B4B1F221D625D6301233A4093400C4A36
:103DF000136043464A461A700120BFF35F8F0022CA
:103E0000044B1A608AF31088B5E70020F5E7C04636
:103E100000400540280100D0F94E0020D04E00207F
:103E200080E200E0EFF3108C72B60A490B68002BB9
:103E3000FCD0BFF35F8F01238340074A074813621A
:103E400002789A430270BFF35F8F00230B608CF3FC
:103E500010887047280100D000400540F94E00202E
:103E600070B505000E001400002923D0002A12D0DE
:103E700080686B689847296800280ED063001B197A
:103E80007200033B9219CB18033A9E7088188A5C23
:103E9000002A11D10470300070BD73009B196200BC
:103EA000033B1219CB18033A9C7088188A5C002ACD
:103EB00005D106702000EFE75A700470EBE75A70E6
:103EC0000670F7E730B583600023CCB2437301334B
:103ED000047342608373C4730D000068012C06D91B
:103EE000421C0133DBB2137003329C42F9D1FF2133
:103EF00029404B005B18C01800230338437030BDC5
:103F000070B505000C1E07D0630001681B19033B48
:103F1000CB185A78002A01D1200070BD50008018BB
:103F20000338091800204E78487021005870280086
:103F3000FFF796FF310004002800FFF7E1FF0600BD
:103F4000002C26D00028E7D021003200A8686B683A
:103F50009847296800280ED073009B196200033B24
:103F60001219CB18033A9C7088188A5C002A00D07A
:103F70005A700670D0E763001B197200033B921958
:103F8000CB18033A9E7088188A5C002A00D05A70B9
:103F900004703400C0E7C046F0B557464546DE46DB
:103FA0004E46E0B50D006F0001687F19033F040025
:103FB000C85D83B00192CA19002850D043001B1875
:103FC000033BCB185E78B446002E1AD1019E002E1A
:103FD00042D0E67B002E04D073009B19CB18033B24
:103FE0005D70A37B002B00D1A573E57300282FD152
:103FF0000023537003B0F0BCBB46B246A946A046AE
:10400000F0BD72006244033A8A1851788846002154
:10401000517089465970320001002000FFF720FFDF
:1040200043468246002B07D05B0021684344033B94
:10403000CB185A78002A16D1424651462000FFF785
:104040000FFF2168019BCA19002BC2D10028CFD0D5
:1040500043001B18033BCB1800219970C8E7019B54
:10406000002BB6D1C4E750008018033809184878EF
:10407000834648464870587041462000FFF7F0FEDE
:10408000594680462000FFF73BFF414602002000D2
:10409000FFF7E6FE8046CFE7F0B557464546DE46D9
:1040A0004E46E0B583B00191457B04006F00006887
:1040B0007F19033FC15DC219002952D04B005B1824
:1040C000033BC3185E78B446002E1CD1019E002E1F
:1040D00044D0E67B002E04D073009B19C318033B29
:1040E0005D70A37B002B00D1A573E573002931D14E
:1040F000002328005370617303B0F0BCBB46B24686
:10410000A946A046F0BD72006244033A8218507876
:104110008046002050708146587032002000FFF722
:104120009FFE43468246002B07D05B002168434434
:10413000033BCB185A78002A17D14246514620003B
:10414000FFF78EFE019B01002068C219002BC0D131
:104150000029CDD04B005B18033BC318002098709A
:10416000C6E7019B002BB4D1C2E75000801803388A
:1041700009184878834648464870587041462000E0
:10418000FFF76EFE594680462000FFF7B9FE414614
:1041900002002000FFF764FE8046CEE770B5050000
:1041A00000292CD0437B8B422ED04C000068641831
:1041B000033C0419A278002A21D053009B18033B2A
:1041C000C25CC6188A4202D11BE0002A08D0530004
:1041D0009B18033BC3185A788A42F6D162785A700A
:1041E000002301222800A3706370FFF7D5FE697BCE
:1041F00002002800FFF734FE6873012000E0002071
:1042000070BD63783370EBE701221900FFF7C4FE3D
:10421000F2E7C04610B50C2082B000F0AFF9FEF70F
:1042200075FD002810D08B4B8B488B498B4A18604A
:1042300059609860D960186159619861D9611862B4
:1042400059625A6202B010BD854CA06700F0ECF9CB
:104250000122844B1A60636C012BFCD10322824B38
:104260001A607F4A936B012BFCD1013301217F4AF5
:104270007F480093043300F031F905237D4A009311
:1042800001217D4800F02AF97C4B5A68FF2A02D8A8
:10429000802252005A608022734B6E4C12011A60C9
:1042A0002169002907D0606901F056FE0130430002
:1042B0001B18033BFDD2E022704B714819680A407D
:1042C000026002221968514001320A400421026052
:1042D0009A681142FCD080216A4A0901116080224B
:1042E00052005A60684B2361684B5968FF2900D817
:1042F0005A60032201215B4B1A60644A9368194299
:10430000FCD0E02310680340614803601268032377
:104310004A40022113405D4A036093681942FCD071
:1043200080215C4B0901196080215B4B4900516081
:1043300063615A4B5A68FF2A00D859608022584B53
:1043400012011A60E169002907D0606901F004FEDA
:10435000013043001B18033BFDD2E0234F4A116894
:104360000B4050490B6080214F4B0901196080219F
:10437000394B49005160E3614C4B5A68FF2A00D821
:10438000596080224A4B12011A60216A002907D025
:10439000606901F0E1FD013043001B18033BFDD2D1
:1043A000E023424A11680B4042490B608021424B96
:1043B0000901196080235B0053608022264BD202E2
:1043C00023623E4B5968914200D25A6080223C4B96
:1043D00012011A60616A002907D0606901F0BCFD12
:1043E000013043001B18033BFDD2E023334A116820
:1043F0000B4034490B608021334B09011960802345
:10440000DB025360154B6362304B5A68FF2A02D8B7
:10441000802252005A6080222D4B12011A60A1693D
:10442000002907D0606901F097FD013043001B1897
:10443000033BFDD2E023254A11680B4025490B6060
:104440008021254B0901196080235B005360124BCA
:10445000A361F7E6F82C0020006CDC021BB700001B
:10446000008000403CB0004030B00040002F685950
:1044700000800240008C864700C00240308000402F
:104480003090004030A00040001BB7003C8000404E
:104490003C9000403CA000404059730754800040CD
:1044A00054B000405490004054A000406080004050
:1044B00060B000406090004060A000406C80004010
:1044C0006CB000406C9000406CA000404880004000
:1044D00048B000404890004048A00040F8B50400B3
:1044E00021481D0017000E0001F036FD01003800C4
:1044F00001F032FD069B29041B0319432368002B9E
:1045000020DB1A4B1A4DE21853425A4180235B01BB
:104510009C461203174B62441A60174B1A6017002F
:10452000AB689F43FBD1C022231D92011A43212374
:104530002660A06013602368002BFCDA0823E1608A
:104540001360F8BD3F2322681340B342D9D1A3685A
:104550001B051B0D8342D4D1EE22E368D202134027
:104560008B42CED1EDE7C046001BB7000040FDBF37
:1045700000C0004000E0004000F000408023024AFC
:104580009B000343D36270470080054010B5802430
:104590001C4BE4051C6000281AD001231A4C184358
:1045A0001A4BDC611A4C44401C62596298628021AB
:1045B000144BC9051960174817490860E021C90460
:1045C0001960002A07D18022144B12061A6010BD10
:1045D0000E4BD861EBE753019B1A9B009A1880237E
:1045E00012015B049A4209D213000D490B60074B7C
:1045F0005A608022094BD2051A60E8E7094B1A007D
:10460000F3E7C04600B00540D3C007B000800540C6
:104610002D3FF84FFCFF01000820014000A005409D
:10462000984E0020FFFFFF00AA23064A1B011360DB
:104630002F230549D360054B19605368002BFCDA22
:104640007047C0460040024000B0FA0000600240DF
:104650002C4B2D4A70B51A602C4A2D4B2D491A60EF
:1046600014008B689C43FBD12B4D2C4EB54208D2D5
:10467000013E761BB60808CD984723000134B342AB
:10468000F9D1FFF7C7FD264A214B1A60214A9368EA
:10469000DB43DB01DD09002BF9D14022214B224C09
:1046A000224E9A675A671A67DA66B44208D22368BC
:1046B0002000002B20D00834FEF7A2FEB442F6D32F
:1046C0001B4C1C4EC022B168200002F071FCB4608B
:1046D000FEF794FBFEF756FEFFF74AF8164C174E0E
:1046E000B44208D2013E361BB60808CC98472B00CE
:1046F00001359E42F9D170BD0834FEF773FEB44215
:10470000D5D3DDE700E00040BFCDFBFEFE7F3C00DF
:1047100000F0004000C00040002A0020102A0020C5
:10472000FFFFFF0100F00140F8290020002A0020CF
:104730000000002000ED00E0102A00203C2A0020AC
:1047400000BEFDE7094A03001068002805D00849AB
:10475000C3188B4207D81360704706480449C31832
:1047600010608B42F7D901204042F5E7904A0020C3
:1047700000000420FC4E0020002070470120404231
:104780007047C04610B5FFF7DBFFC04630B50D00DF
:1047900083B01900002A0BD0074B084C01920093FC
:1047A00002002B00200001F03DFB0120FFF7C8FFB5
:1047B000034B1A00F1E7C0461C6204102C6204107F
:1047C000286204100FB400B5084883B002F0B4FCAE
:1047D000049B002B07D005A91800019101F042FBB2
:1047E000034802F0A9FC0120FFF7AAFF5C62041055
:1047F0006C62041010B50148FFF7E4FF706204100A
:104800009A4200D2885470477047C046F8B5574660
:104810004546DE464E46E0B598460A9B06009A4657
:104820000D9B0F00934615009B0710D10B9B0C9A14
:1048300093420CD213005C460B9A9D1A5D442200F1
:104840004346013439002020B047A542F7D10B9CE4
:104850006319002C09D01D0053462A1B013C185D2A
:1048600039004346B047002CF6D10D9B9B070ED56F
:104870005B46EC1A0C9BA34209D999462A00434691
:10488000390020200134B0470135A145F6D8280071
:10489000F0BCBB46B246A946A046F8BDF0B54F46AF
:1048A0004646D646C0B584B098460EAB1B789446B3
:1048B0009946129B0D9C109F119E9A0724D4002E9E
:1048C0006AD1BC4220D201221A409246202C00D14B
:1048D000CBE00C9A551E302201E0202C30D0013460
:1048E0002A55A742F9D85246002A0DD0B4420BD21D
:1048F0000C9A551E3022202C02D126E0202C61D0AB
:1049000001342A55B442F9D1DA0634D55A0562D4B5
:10491000002C5CD10F9A102A00D191E0022A00D11C
:10492000A1E030220C9C227001244A46002A5CD16E
:104930005A0700D47DE02B220C9D2A5501341CE03F
:104940005246002A02D0202E3CD92024DA0614D563
:104950005A0512D4202F00D197E0202E3BD12026DB
:104960001F2234000F9D102D00D181E0022D4CD06C
:1049700030250C9FBD54202CD7D103930C9B62464D
:104980000093029643460194FFF740FF04B0E0BC59
:10499000BA46B146A846F0BD012215001D40AA4600
:1049A0001A4227D04A46002A33D10C321A4230D15B
:1049B000BC429BD2202C00D08BE7202EC5D8DA0633
:1049C000A4D4DAE72024DA06D7D55A0503D4A742BF
:1049D00021D0B4421FD00F9A102A21D0022A10D021
:1049E000202CCAD022000134C2E72D220C9D2A556A
:1049F0000134C2E7BC4200D386E7202C00D068E730
:104A0000E1E7202CB9D02200013462250C9FBD546F
:104A1000E6E7013ECCE7621E012C00D17AE7A1E770
:104A20009A0616D4202CA8D078220C9D2A55013441
:104A3000D6E71A07A1D520220C9D2A5501349CE700
:104A40009A060ED478220C9C2270302262700224C6
:104A50006BE7202C91D058250C9A1219157001344F
:104A6000BEE75822EFE76222EDE7002AA7D1AAE7C6
:104A7000023C9D0604D478250C9F3D551400B1E7F7
:104A800058250C9F3D551400ACE71F226AE7C0462D
:104A900010B5002800D110BD02F002FBFBE7C046B4
:104AA000F0B557464E464546DE46E0B599B08246DB
:104AB000894690460993229A239B1000190001F021
:104AC0001CFD002800D0C8E0229823990122D54B74
:104AD000524201F00DFD002800D0BEE0229823993B
:104AE0000122D14B524201F0EDFC002800D0B4E08D
:104AF000229823990022002301F0E4FC002800D032
:104B0000E9E1229E239F8023269ADB001A400D9222
:104B1000269A1A4201D1062324933B00334300D046
:104B2000B4E0269B1B0500D5BFE1002300240A93B7
:104B30000B94002304250C93259B0024AB4200D941
:104B40005C1B0223269A1A400D92269A134203D028
:104B50006B426B415B421C400C9B002B07D00A9AB6
:104B60000B9B3000390001F044FC06000F00229836
:104B700023990022002301F0A5FC002803D0802106
:104B800009067B181F00269AA84B00960197134030
:104B9000099E0493249B03940293424633004946A2
:104BA000504600F0A7F90400002D67D02020269A77
:104BB0004946024013005A4253415B42621C18406E
:104BC0000A92330022004530D0470C9A6F1ED3174B
:104BD000D4185C40D30F9B46002501E0202D13D054
:104BE00008AA94461F23200063440A2101355E1958
:104BF00001F0B2F93031317020000A2101F0ACF936
:104C000026000400092EE9D8052306930023049307
:104C10000A3303935B46099E029310AB0A9A0093F2
:104C200049463300504605970195FFF737FE0D9A28
:104C30000400002A22D04246851A259AAA421DD98C
:104C4000B04657461600220043464946202001350B
:104C5000B8470134AE42F6D810E0269B4246049392
:104C6000259B49460393249B50460293229B239CF9
:104C700000930194099B00F03DF90400200019B055
:104C8000F0BCBB46B246A946A046F0BD684B7800D2
:104C90009C46400D604401F043FC664A664B01F0BF
:104CA000C6FB664A664B01F09BFB664A3B031B0B47
:104CB0001A4304000D00644B11003000002201F083
:104CC00086FB624A624B01F0B2FB02000B0020003F
:104CD000290001F085FB01F03BFC0C9001F020FC69
:104CE0005C4A5D4B04000D0001F0A1FB00225B4B10
:104CF00001F076FB01F02CFC594A8346594B200009
:104D0000290001F094FB040058460D0001F008FC56
:104D1000554A564B01F08BFB02000B002000290086
:104D200001F055FB02000B000A900B9101F07FFB94
:104D300004000D000A980B9902000B0001F050FBD3
:104D400000220E900F914A4B2000290001F051FBE8
:104D50000022484B01F044FB02000B002000290018
:104D600001F047FB0022444B01F03AFB02000B002C
:104D70002000290001F03DFB0A9A0B9B0D008021C9
:104D80000400C905002001F022FB02000B002000F6
:104D9000290001F025FB394C02000B000E980F99F9
:104DA00001F027FB5C440022264B01F019FB230590
:104DB000002201F03CFB04000D0002000B0030005B
:104DC00039000A940B9501F07DFB00285ED1230089
:104DD0002A00C6250C9963318D42AD4126996D425A
:104DE0000435090500D4A7E6134364D03000390028
:104DF000234A244B01F074FB002807D00022300026
:104E00003900214B01F05EFB002854D1249B002B7C
:104E100000D191E60D9B5A1E9341249AD31A2493F4
:104E20008AE6C046FFFFEF7FFFFFEFFFFFF7FFFFC0
:104E300001FCFFFFFB799F501344D33FB3C8608B45
:104E4000288AC63F0000F03F0000F83F61436F63CF
:104E5000A787D23F71A379094F930A400000E03F32
:104E60001655B5BBB16B0240EF39FAFE422EE63F54
:104E700000002C400000244000001840FF03000008
:104E80002D431CEBE2361A3F80842E410C9B0022FE
:104E9000013B0C932000164B290001F0AAFA0A00EE
:104EA000010003000A910B9293E7002300240A9368
:104EB0000B9400230C93249A0C9B9A4214DDD31A72
:104EC000013B24938023269ADB001A43002300250C
:104ED00026920C9330E6802212069446229B1E00F6
:104EE000239B63441F000EE600232493EAE7C04699
:104EF00000002440F0B54546DE464E465746E0B534
:104F000095B08B46904699461E9A1F9B0A901900B1
:104F10001000209D01F0F1FA002800D0B0E11E98A9
:104F20001F990122C74B524201F0CCFA002800D051
:104F300037E11E981F990122C34B524201F0D8FA63
:104F4000002800D0A7E01E981F990022BF4B01F057
:104F5000CFFA002800D088E01E981F990022BC4B91
:104F600001F0B0FA002800D07FE01E981F990022BF
:104F7000002301F0A7FA002800D0FAE000230B93E9
:104F80008023229C229ADB001C401A4200D102E1BD
:104F9000092D00D87EE106A98C462C00172200239B
:104FA0003021093C62440133D154EF1A202B00D147
:104FB00032E1A342F7D10022A44B069207931E9838
:104FC0001F9901F0C5FA050001F0AAFA02000B00D2
:104FD0001E981F9901F0FBF9069A079B01F027FA2A
:104FE0000890099101F0D8FA060001F095FA020044
:104FF0000B000898099901F0EAF90022954B0890F6
:10500000099101F075FA002800D1D2E00136300094
:1050100001F082FA069A079B01F062FA002801D09B
:1050200000260135AA46002F00D098E0280001F0A4
:1050300077FA02000B001E981F9901F0C8F9854B02
:10504000002206000F0001F03DFA0CAB9A46002842
:1050500045D10022300039007E4B01F049FA00288A
:105060003DD1EB073BD5013539E0229B4246049305
:10507000219B594603930A981E9B1F9C02950093FF
:1050800001944B46FFF70CFD15B0F0BCBB46B24691
:10509000A946A046F0BD229B5B0767D403226E4B56
:1050A00022990192039121990291009342464B4625
:1050B00059460A98FFF7AAFBE6E706AA9446172383
:1050C000280063440A2101341E1900F01DFF30310D
:1050D000280031700A2100F017FF051E76D0202C21
:1050E000EBD10323229A1340012B1DD1219B002BCE
:1050F0001AD00B9B002B00D0BBE0229A0C3313423A
:1051000000D0B6E0219BA34200D887E006AB9C46C6
:1051100017223023624404E02199013413558C4254
:1051200059D0202CF8D12024229B01940393219B59
:1051300002935346B9E706AA944617230A2163440B
:10514000300001341D1900F007FF303129703000A4
:105150000A21013F00F000FF092E46D90600202C4D
:10516000E9D155460CAB20249A46B8E704223B4BC4
:1051700096E71E9A1F9B0020002101F028F90123C9
:105180000B938023229C229ADB001E901F911C40CF
:105190001A4200D0FCE60022314B06270692079304
:1051A0000DE7229B0393219B0293042301932D4B34
:1051B0007BE7002208980999264B01F083F9002823
:1051C00000D02FE7002E4FD101362BE70323229A80
:1051D0001340012B68D0202CA6D00B9B002B1FD096
:1051E0002D235246135501349EE75546202CB9D045
:1051F00030223B19002F4BD0172006A90134091883
:105200000A55202CAED09C42F6D10CAA92462E22F2
:1052100051465C1CCA5462E72024CCE6202C83D083
:10522000229B5B0708D4229B1B0700D47CE720232A
:1052300052461355013477E72B2352461355013458
:1052400072E7C046FFFFEFFFFFFFEF7F65CDCD4167
:1052500065CDCDC10000E03F846204107C62041083
:1052600080842E418C620410F30700D4DAE6013604
:10527000D8E6219B013B2193A34200D946E7AAE748
:10528000229B0393219B029303230193084B0CE77A
:105290002300BAE7074BEA009B185C681B682F00E5
:1052A0000693079400248AE6219B002B93D020E7E5
:1052B0008862041030640410F0B5DE4657464E464E
:1052C0004546E0B59FB01C00289B93460A93CC4A04
:1052D000CC4B8A4609901A60002900D14DE1002389
:1052E00020789946002800D14FE1C74B4D460893DE
:1052F000C64B0D930AE02A006E1C5B46099D514681
:10530000A847350001342078002872D02528F2D132
:1053100010239946083B9846043B00219C460227EF
:105320000134207826000300203BDBB2102B03D889
:10533000089A9B00D3589F460300303B092B6ED937
:1053400000272A2800D18AE000230B932E2800D1C1
:1053500076E00300683BDBB2122B1BD8AC4C9B0001
:10536000E3589F46012301341943DAE739430134F6
:10537000D7E7634601341943D3E74B460134194359
:10538000CFE7434601341943CBE780235B007078B5
:105390001943013667280AD824281FD90300253B62
:1053A000DBB2422B1AD80D9A9B00D3589F460300BC
:1053B000693BDBB20F2B11D801249C40954AA446CF
:1053C000904614400C9462464446224200D025E2A6
:1053D0000A2B00D101E1072B00D1D8E0099C2A005B
:1053E0005B465146A04770786F1C741C3D00002836
:1053F0008CD1A9462C00CB4503D801235B425B44EA
:1054000099465B464A4651460020099DA847200020
:105410001FB0F0BCBB46B246A946A046F0BD00276F
:10542000BB00DF1901367F003F183078303F0300A2
:10543000303B092BF4D900230B932E2800D088E7AA
:1054400080237078DB0019430300303B741C092B68
:1054500000D82CE12A2800D138E1260079E70A9B00
:1054600080CB002F03DB60780A93661C6CE7022276
:10547000607811437F420A93661C65E7672800D174
:10548000C8E1472800D104E2452800D104E2072002
:105490000A9B04910733834319000B9A03970292E6
:1054A0000CC90998009201930A912A005B46514663
:1054B000FFF7F6FA741C050025E770786C2800D118
:1054C0000DE280235B001943013663E780239B00D4
:1054D0007078194301365DE77078682800D1F9E1EA
:1054E00080230136194355E7462800D18FE1072074
:1054F0000A9B04910733834319000B9A0397029286
:105500000CC90998009201930A912A005B46514602
:10551000FFF7F0FC741C0500F5E62A00099C5B46C9
:10552000514625206F1CA0473D00741CEBE68907FF
:1055300000D4DEE10A9B2A0098466B1C994643463C
:1055400001CB51469846099C5B46C0B2A047ED1975
:10555000012F00D893E24C46B1465646099F2200DF
:105560005B46013431002020B847AC42F7D1B24647
:1055700043464E460A93741CC5E6274B2078099390
:1055800000239946002800D0AFE6002433E70A9BA9
:105590001A0008CA9046002B00D1A7E0212008433A
:1055A0000EA98C461F2262440F27AC468146150087
:1055B0000C9C02E0202C0CD0130038001840010095
:1055C0003731092800D80739013429551A090F2B1A
:1055D000F0D8654648460C9494E00A9B1A0008CA25
:1055E00012920B9A002A7BD102241A786442002A74
:1055F0001DD0013418199C461C00030010E0C04661
:10560000B9520010944E00209462041024630410D8
:10561000D862041041900000094800109C4203D059
:10562000607801340028F9D16346E01A0C9080209C
:10563000C0008446084080466046014204D00B9872
:105640000C9C844200D90C900220844608400A90A9
:105650006046084200D189E1101E00D170E1424647
:10566000002A00D11BE10B9A5B1B9046A8444446DC
:105670002A00B84699465746B246099E09E05B465D
:105680003900551CB0474B46585D002800D12CE12D
:105690002A009442F3D156462500BA4647460A9B53
:1056A000002B00D04CE1129B741C0A932BE60022C5
:1056B00093009B185B0001341A182078303A0300DD
:1056C000303B092BF4D926000B9242E60A9B0236A6
:1056D00004CBD043C01702400B9230780A9338E6CF
:1056E0001A78002AA3D00B98441E82E710230800E2
:1056F00080279843113318430B00FF003B40394289
:1057000000D14DE7082305930B9B2A000493102337
:105710000393002302930C9B0690019316AB009316
:1057200051465B460998FFF7B9F843460500741CDB
:105730000A93E8E5622800D1A6E1582800D1B1E13A
:1057400080230A00DB001A409046194200D189E10B
:10575000112399438C46802362469B001A40100017
:1057600062461A4200D023E1802364465B001C405D
:105770001A4200D032E263465B0600D56BE1634615
:105780000A991B0600D4DBE208C91BB2DA17981885
:10579000504080B20A91DA0F0C92002B00D118E22F
:1057A00080460EAA91461F234B441395E146454679
:1057B0001297B0461E0001E0202C0FD028000A21CD
:1057C00000F0CAFB013437193031397028000A2142
:1057D00000F0C2FB2F000500092FEDD84646CC464D
:1057E000129F139D634606930B9B059704930A2310
:1057F00003930C9B029316AB2A000194009351462D
:105800005B460998FFF74AF8741C05007BE52023E6
:1058100019436CE680231B01194338E6782800D031
:105820007CE180230A00DB001A409146194200D136
:10583000A5E20D239943080003330C938023020053
:105840009B001A409046184200D078E18023040063
:105850005B001C40184200D007E2430600D453E22C
:10586000FF210A9B04CB0A4090460A934346002B33
:1058700000D026E1103398434B46002B00D120E1A5
:1058800000240B9B069004930C9B05970393002325
:10589000B0E780231B01194320231943F7E55B1B65
:1058A00099460C9B099C98465B46B3465646BA46B9
:1058B0001F002A003B003100A0474B460135585DD0
:1058C0000028F6D143460C933B005746B2465E464D
:1058D0009B46E4E6C023B078194302365AE5C0235C
:1058E0009B00B0781943023654E55646BA464746FF
:1058F000D5E6012F00D832E26B1E9846B8442C0042
:10590000A9464546B8465746B246099E22005B4620
:10591000013439002020B047AC42F7D10A9B5646EB
:1059200001CBBA464746984622005B46099C514641
:10593000C0B2A0474D464346ED190A93741CE2E4F9
:105940000C9BA8469F4200D8ADE64446B04656465A
:105950007D19099FED1A22005B4601343100202099
:10596000B847AC42F7D1B24646469CE60C9887420F
:1059700000D8F0E1424698467919B9465746B246F2
:10598000099E0C1A0C922A005B4601353900202032
:10599000B047A542F7D15646BA464F4643460C9A01
:1059A00090467A1C0C921A78101E00D057E67AE6C0
:1059B0000822072191460A9B07338B4399444A46A4
:1059C0000ACB0C000A921C43DA0F002C4ED0D817D9
:1059D000040010904C4011900E94109811990C00F6
:1059E0005C400F940E9B0F9C1B1A8C410E930F94DE
:1059F0000EA988461F23002443441297B04627006F
:105A000013951E000E9C0F9DE1460C9201E0202F85
:105A100010D0200029000A22002300F0DBFA013711
:105A200030322B00F2550D0022000400002BEED185
:105A3000092AECD84646CC460E940F950C9A3C00A9
:105A4000139D129F634606930B9B059704930A23AD
:105A500002920393CFE6FF230A9904C9134018006A
:105A60000A9198E6102399438C4674E64346002435
:105A7000002BE7D1002300240E930F94B8E7434690
:105A80004D460A93741C3EE480230A00DB001A4052
:105A90009146194200D140E10D2399430B3B080088
:105AA0000C93CBE680230A00DB001A409146194292
:105AB00000D162E10D2320209943033308430C9366
:105AC000BCE66123810600D541230EA91F228C4626
:105AD000DBB262440A3B13971495814645460C9FFE
